:100000009EC0D2C0B7C0B6C0B5C0B4C0B3C0B2C045
:10001000B1C0B0C0AFC000C3ADC0ACC0ABC0AAC01F
:1000200036C6A8C0A7C0A6C0A5C0A4C0A3C0A2C011
:10003000A1C0A0C0FC0018006C033C039803B403EB
:10004000F4031C00FC03BC03DC03E429E400780394
:10005000E401C4010600FF0901A101150026FF000B
:1000600075088501950E0900B202018502951E09E9
:1000700000B202018503953E0900B2020185049594
:100080007E0900B202018505953E0900B20201C059
:100090000403090412036F00620064006500760027
:1000A0002E00610074001A0372006F0062006F007E
:1000B0007000650061006B002E006E00650074002A
:1000C00014034100560052002D0044006F007000E0
:1000D000650072001803520050002D0033004400E8
:1000E0005300630061006E0065007200120361003E
:1000F0007600720064006F007000650072000A03F1
:100100007600650072002E0032001201010100002D
:100110000008C016DF0500010102000109022200EB
:1001200001010080640904000000030000000921AF
:1001300001010001223C000705810308000A112487
:100140001FBECFEFD4E0DEBFCDBF11E0A0E0B1E035
:10015000E0E9FEE002C005900D92A430B107D9F7A6
:1001600013E0A4E0B1E001C01D92A738B107E1F7A8
:100170008DD38CC645CFA82FB92F80E090E041E009
:1001800050EA60956F5F58F42D9138EF822797956C
:10019000879510F0842795273F5FC8F3F3CF089524
:1001A000EADF8D939D930895CF93CFB7CF93C395F7
:1001B000189BE9F7189B09C0189B07C0189B05C03E
:1001C000189B03C0189B01C0A6C0DF93C0916A03AF
:1001D000DD27CF58DC4F189B02C0DF91EBCF2F9368
:1001E0000F931F9303B12FEF00FB20F94F933F9321
:1001F00013B14FEF012700FB21F93BE031C04E7FE7
:10020000012F13B1216028C0102F4D7F2260000004
:1002100003B129C04B7F2460012F000013B12BC014
:1002200013B1477F28602AC04F7E03B120612CC0E4
:100230004F7D13B120622FC04F7B03B1206432C0C9
:10024000422703B149934FEF0000102710FB20F91C
:1002500013B11370C9F1297F91F2012700FB21F935
:1002600003B1237F89F2315058F1102710FB22F996
:1002700013B1277E79F2012700FB23F92F7C81F24D
:1002800003B1102710FB24F92F7971F200C013B1CC
:10029000012700FB25F92F7359F200C003B1102785
:1002A00010FB26F9223040F200C013B1012700FBF9
:1002B00027F9243028F64F77206813B10000F9CFD2
:1002C00011E01CBB00271CC03B503195C31BD04024
:1002D00011E01CBB0881033C11F10B3401F12091AA
:1002E00068031981110F1213EDCF4A81441F09369B
:1002F00059F10D3211F0013E29F74F7009F0042F2A
:1003000000936F033F914F911F910F912F91DF91B8
:10031000CCB3C0FD4CCFCF91CFBFCF9118952091DA
:100320006F03222379F310916D03112311F53430FB
:1003300012F130936D032093690310916A033BE03F
:10034000311B30936A0317C000916D0301308CF4A8
:100350000AE53091000134FD10C000930001CDE5A5
:10036000D3E00FC02795A8F45150A9F4220F000044
:10037000F9CF4AE503C042ED01C0432FC4E1D0E00C
:1003800032E014B11360289A14B905B120E413E0E7
:100390005F93012756E005B9279520F4515021F4C9
:1003A000220FF9CF012756E000003B5A05B9D0F2E1
:1003B000279528F4515029F4220F0000F9CF012786
:1003C00056E0279505B920F4515021F4220FF9CFBA
:1003D000012756E02991332305B921F60C7F1091AE
:1003E0006E03110FC651D04005B911F01093680388
:1003F00011E01CBB016014B11C7F402F4C7F5F914A
:1004000000C000C005B914B945B97CCFE9E6F0E0F9
:10041000808183608083E89A08951F93CF93DF9350
:1004200060916D03635067FD8DC080916A03CCE0DD
:10043000D0E0C81BD109CF58DC4F809169038031CF
:1004400018F4CE01A6D37CC08D3209F069C06830A3
:1004500009F076C083EC80935D038AE58093000108
:10046000109204018881807621F0CE017AD3282F62
:1004700044C09A81109266038981882321F41092E6
:10048000670322E033C0853019F490936E032DC0CA
:100490008630E1F48B81813031F0823021F083307D
:1004A00011F0813221F4CE012AD3282F0BC08232E1
:1004B00011F020E007C084E590E090936C038093F6
:1004C0006B032CE380E48093040117C0883021F48F
:1004D00021E080E793E00CC0893019F49093700319
:1004E00004C08A3011F421E001C020E086E693E0E8
:1004F00090936C0380936B0309C02F3F39F488817C
:1005000087FD2E8180E88093040106C08F818823B7
:1005100019F48E81821708F0822F8093010110C098
:100520008091040187FF0CC0CE0134D38F3F21F4AA
:100530008EE18093000104C0882311F01092010124
:1005400010926D038091000184FF58C080910101D9
:100550008F3F09F453C0182F893008F018E0811B31
:100560008093010180915D0398E8892780935D0362
:10057000112391F18091040187FF08C08EE593E07B
:10058000612F3BD3182F893098F526C020916B033B
:1005900030916C0386FF0DC0AEE5B3E080E090E0E3
:1005A000F901E80FF91FE491ED9301961817C1F7CF
:1005B00008C0912FD901EEE5F3E08D918193915020
:1005C000E1F71150812F90E01F5F0196820F931F7A
:1005D00090936C0380936B038EE593E0612FE0DDD5
:1005E000612F6C5F6C3041F08FEF8093010104C08C
:1005F0008FEF809301016EE16093000194E183B17C
:10060000837031F49150D9F710926E031092680301
:10061000DF91CF911F9108951F920F920FB60F9205
:1006200011242F933F934F938F939F93EF93FF93B7
:10063000E0910201EF3F29F41092850010928400AE
:1006400005C0EE2311F05F9801C043984E2F4F5F15
:10065000409302014230D4F480918400909185004F
:10066000E42FFF27E7FDF095EE0FFF1FE75AFC4F41
:1006700020813181820F931F90938900809388009D
:10068000442311F05F9A0BC0439A09C080E395E7B9
:1006900090938900809388008FEF80930201FF91EF
:1006A000EF919F918F914F913F912F910F900FBE9E
:1006B0000F901F9018958091050190910601089563
:1006C000BC0197FF03C060E070E006C087E06930BE
:1006D000780714F068E077E07093060160930501F5
:1006E0006A5D7D4F80E0A6D308951092800082E07D
:1006F000809381001092850010928400B19AEFE6F9
:10070000F0E08081826080833B9A579A80E06CEDB4
:1007100075E090D381E06CED75E08CD384E893E0D4
:10072000CFDF08952B982D982A98229A239A259AFC
:1007300081E58CBD089580910B018823B9F09091DB
:1007400007018091080180958EBD0DB407FEFDCF95
:10075000926090959EBD0DB407FEFDCF2A9884E06F
:100760008A95F1F72A9A10920B0108959091090148
:1007700080910A0180958EBD0DB407FEFDCF91607A
:1007800090959EBD0DB407FEFDCF2A9884E08A9512
:10079000F1F72A9A81E080930B0108959093080164
:1007A0008093070170930A0160930901089590E016
:1007B000FC01EF70F070EE0FFF1F24E330E0E20F5A
:1007C000F31F45915491FC0194E0F595E7959A95B6
:1007D000E1F7EE0FFF1FE20FF31F85919491509305
:1007E00008014093070190930A018093090108953D
:1007F000429A089542980895C7D215B814B818B807
:1008000017B81BB81AB82998289821982098209AC8
:10081000449A459AEAE7F0E080818068808382DF2D
:1008200064DF08950F931F938C014ADFC8016AE0CB
:1008300070E018D3862FBBDF1F910F9108956FD200
:1008400020910C0130910D0140910E0150910F014A
:10085000621B730B840B950B6B3071058105910541
:10086000A0F05DD260930C0170930D0180930E0196
:1008700090930F01349904C01EDF0596D3DF0895CD
:10088000359903C018DF0597CDDF08952FE088E183
:1008900090E00FB6F894A895809360000FBE209367
:1008A0006000AADFA89560E870E080E090E044D2A4
:1008B00060E870E080E090E03FD220988CEC93E01C
:1008C0006CEC73E26BDF3A9A4298A0DD7894A895BD
:1008D000A4DD0DD130DFB3DFFACF2BE1209315017A
:1008E00020913102209316019093170180931801F3
:1008F0002EE0209319011092140110921301069614
:1009000090931201809311019C0121503040E5E148
:10091000F1E090E004C081919827215030402115EA
:100920003105C9F79083089520911101309112018A
:100930008091130190911401281B390BC90108956E
:1009400020911101309112012115310519F4EFEFB9
:10095000FFEF19C08091130190911401FC01EB5E2F
:10096000FE4FE0810196909314018093130182174A
:10097000930740F01092120110921101109214018D
:1009800010921301F0E0CF010895682F20915403D5
:1009900030915503409156035091570380914E0377
:1009A00090914F03A0E0B0E0281739074A075B0792
:1009B00020F010922F0210922E0280912E02909120
:1009C0002F02009731F46B3109F056C010924B039F
:1009D00005C021E08931920708F04AC0FC01E05DC2
:1009E000FD4F6083FC013196F0932F02E0932E02BD
:1009F00020914B03262720934B03E430F105A9F403
:100A000080913302809349038091320280934A039C
:100A10008091490390914A03069690934A038093EC
:100A200049038A51914040F123C0E530F10519F4A2
:100A30006E30F1F421C0E530F105F0F0809149030A
:100A400090914A03E817F907B9F410922F02109217
:100A50002E02222321F481E0809310010DC080EB4F
:100A600080931A0180931B0182E090E036DF04C07E
:100A700010922F0210922E0288ECF8D00895CF9396
:100A8000DF93C2E0D0E0569A8091350280931A013C
:100A900010921B01803829F1803141F481E0ACD102
:100AA00090931C0180931B01C5E01BC0813151F460
:100AB0008091B00080688093B0008091360280936E
:100AC000B3000FC0803231F480913602909137022A
:100AD000A9DE07C0813211F48BDE03C0823209F433
:100AE00089DE5698CE01F9DEDF91CF91089580918D
:100AF0001001882319F010921001C1DF0895FC0144
:100B000092818381823041F0833051F0813009F548
:100B10002AE031E082E120C02CE131E082E21CC019
:100B2000913059F0913028F0923059F09330A1F47F
:100B30000CC020E930E084E00FC026EA30E08AE112
:100B40000BC024ED30E088E107C02EEF30E08CE0F0
:100B500003C02EE231E089E030936C0320936B03F5
:100B60000895FC01918180818076803281F49130FA
:100B700011F0993061F4828180934D03853011F03A
:100B800081E001C083E080934C038FEF089580E003
:100B9000089508950F931F93CF93DF93FC01162FB1
:100BA00090914C03892F8150823000F500E068302D
:100BB00009F001E0913011F0EF0109C081818093CB
:100BC0004D03EF012296125082E080934C038091F6
:100BD0004D03882361F08881D8DE80914D038150D8
:100BE00080934D03115019F02196F1CF01E0802F31
:100BF000DF91CF911F910F9108950F931F93CF9382
:100C0000DF93EC01062F90914C03892F81508230A5
:100C100010F000E025C0913011F0162F13C084DED3
:100C2000282F80914D03FE018193992311F08FEFBE
:100C300001C0822F8983EF012196102F125082E08C
:100C400080934C0380914D03882351F079DE97FD0A
:100C500005C08883115021F02196F8CF10924D03E2
:100C6000802FDF91CF911F910F91089594E6899F76
:100C7000C001112490934F0380934E0310925403AC
:100C800010925503109256031092570308951F9225
:100C90000F920FB60F9211242F933F938F939F9330
:100CA000AF93BF938091540390915503A091560345
:100CB000B0915703309158030196A11DB11D232F08
:100CC000235D2D3720F02D570196A11DB11D2093D6
:100CD00058038093540390935503A0935603B09305
:100CE00057038091500390915103A0915203B0910A
:100CF00053030196A11DB11D80935003909351039E
:100D0000A0935203B0935303BF91AF919F918F91E2
:100D10003F912F910F900FBE0F901F901895F89450
:100D2000209154033091550340915603509157033D
:100D30007894B901CA010895EF92FF920F931F931F
:100D40007B018C01F894209154033091550340911C
:100D50005603509157037894F894809154039091DE
:100D60005503A0915603B09157037894821B930BBF
:100D7000A40BB50BE816F9060A071B0768F71F91C5
:100D80000F91FF90EF900895F89484B5826084BD30
:100D900084B5816084BD85B5826085BD85B581607F
:100DA00085BDEEE6F0E0808181608083E1E8F0E0DF
:100DB000808182608083808181608083E0E8F0E0D0
:100DC000808181608083E1EBF0E0808184608083BA
:100DD000E0EBF0E0808181608083EAE7F0E08081F1
:100DE0008460808380818260808380818E7F808325
:100DF0001092C100789408958F709091030192959C
:100E0000990F990F907C982B90937C0080917A0099
:100E1000806480937A0080917A0086FDFCCF2091D7
:100E2000780040917900942F80E030E0282B392B16
:100E3000C90108959B01E82FF0E0EE0FFF1FE75A6C
:100E4000FC4F3695279540E050E0DA01C901880F44
:100E5000991FAA1FBB1F820F931FA41FB51F918349
:100E600080830895AA1BBB1B51E107C0AA1FBB1FAB
:100E7000A617B70710F0A61BB70B881F991F5A9526
:100E8000A9F780959095BC01CD010895F894FFCF06
:040E90005AFFFF0105
:00000001FF
